:100000000C9435000C945D000C945D000C945D0024
:100010000C945D000C945D000C945D000C945D00EC
:100020000C945D000C945D000C945D000C945D00DC
:100030000C945D000C945D000C945D000C945D00CC
:100040000C9487010C945D000C94F7010C94D10181
:100050000C945D000C945D000C945D000C945D00AC
:100060000C945D000C945D00A70311241FBECFEF1C
:10007000D8E0DEBFCDBF12E0A0E0B1E0E2E4F8E0FE
:1000800002C005900D92AE3AB107D9F723E0AEEA6F
:10009000B2E001C01D92AC38B207E1F710E0C5E351
:1000A000D0E004C02197FE010E94F603C433D107BB
:1000B000C9F70E9429020C941F040C940000AF920F
:1000C000BF92CF92DF92EF92FF920F931F93CF9345
:1000D000DF936C017B018B01040F151FEB015E01A7
:1000E000AE18BF08C017D10759F06991D601ED913C
:1000F000FC910190F081E02DC6010995892B79F7DB
:10010000C501DF91CF911F910F91FF90EF90DF908C
:10011000CF90BF90AF900895FC01538D448D252F53
:1001200030E0842F90E0821B930B541710F0CF9691
:10013000089501970895FC01918D828D981761F0C3
:10014000A28DAE0FBF2FB11D5D968C91928D9F5FDA
:100150009F73928F90E008958FEF9FEF0895FC01B9
:10016000918D828D981731F0828DE80FF11D858D6C
:1001700090E008958FEF9FEF0895FC01918D228DFF
:10018000892F90E0805C9F4F821B91098F73992784
:1001900008958BEE92E00E94BD0021E0892B09F4C6
:1001A00020E0822F089580E090E0892B29F00E94C2
:1001B000C90081110C9400000895FC01A48DA80FC2
:1001C000B92FB11DA35ABF4F2C91848D90E0019699
:1001D0008F739927848FA689B7892C93A089B189B9
:1001E0008C91837080648C93938D848D981306C05A
:1001F0000288F389E02D80818F7D80830895EF92BE
:10020000FF920F931F93CF93DF93EC0181E0888FD0
:100210009B8D8C8D98131AC0E889F989808185FFA0
:1002200015C09FB7F894EE89FF896083E889F98942
:1002300080818370806480839FBF81E090E0DF9144
:10024000CF911F910F91FF90EF900895F62E0B8D97
:1002500010E00F5F1F4F0F731127E02E8C8D8E1152
:100260000CC00FB607FCFACFE889F989808185FFB9
:10027000F5CFCE010E94DD00F1CFEB8DEC0FFD2F0D
:10028000F11DE35AFF4FF0829FB7F8940B8FEA8974
:10029000FB8980818062CFCFCF93DF93EC01888D83
:1002A0008823B9F0AA89BB89E889F9898C9185FDF1
:1002B00003C0808186FD0DC00FB607FCF7CF8C917F
:1002C00085FFF2CF808185FFEDCFCE010E94DD005A
:1002D000E9CFDF91CF910895FC0101900020E9F76B
:1002E0003197AF01481B590BBC018BEE92E00C9487
:1002F0005F00CF93DF930E946C01EC0182E191E0FB
:100300000E946C018C0F9D1FDF91CF9108951F9269
:100310000F920FB60F9211242F933F938F939F93B9
:10032000AF93BF938091E7029091E802A091E90218
:10033000B091EA023091E60223E0230F2D3758F501
:100340000196A11DB11D2093E6028093E7029093D0
:10035000E802A093E902B093EA028091E202909150
:10036000E302A091E402B091E5020196A11DB11D46
:100370008093E2029093E302A093E402B093E5023B
:10038000BF91AF919F918F913F912F910F900FBE91
:100390000F901F90189526E8230F0296A11DB11DFE
:1003A000D2CF1F920F920FB60F9211242F933F932B
:1003B0004F935F936F937F938F939F93AF93BF936D
:1003C000EF93FF938BEE92E00E94DD00FF91EF919F
:1003D000BF91AF919F918F917F916F915F914F915D
:1003E0003F912F910F900FBE0F901F9018951F9265
:1003F0000F920FB60F9211242F938F939F93EF9329
:10040000FF93E091FB02F091FC028081E0910103F7
:10041000F091020382FD1BC09081809104038F5FE5
:100420008F7320910503821741F0E0910403F0E0FF
:10043000E551FD4F958F80930403FF91EF919F91BC
:100440008F912F910F900FBE0F901F901895808164
:10045000F4CFCF93DF93CDB7DEB7A1970FB6F89463
:10046000DEBF0FBECDBF789484B5826084BD84B5F5
:10047000816084BD85B5826085BD85B5816085BD9F
:1004800080916E00816080936E0010928100809157
:1004900081008260809381008091810081608093DF
:1004A0008100809180008160809380008091B10004
:1004B00084608093B1008091B00081608093B0002F
:1004C00080917A00846080937A0080917A008260C3
:1004D00080937A0080917A00816080937A00809185
:1004E0007A00806880937A001092C100E091FB024C
:1004F000F091FC0282E08083E091F702F091F80233
:100500001082E091F902F091FA028FEC8083109250
:100510000303E091FF02F091000386E08083E09105
:10052000FD02F091FE02808180618083E091FD02F6
:10053000F091FE02808188608083E091FD02F0915D
:10054000FE02808180688083E091FD02F091FE02CE
:1005500080818F7D808385E191E00E94790184E331
:1005600091E00E94790182E191E00E946C01CE014C
:1005700001965C018AE0482E512C612C712C00E020
:1005800010E0F12C8BEE92E00E94BD0018161906C7
:100590006CF58BEE92E00E949B002091AE023091B0
:1005A000AF028D3091F4F901E055FD4F1082FF2428
:1005B000F394121613060CF0F12C1092AF02109265
:1005C000AE02E0CFFF24F394DDCF22333105D4F621
:1005D000F110F8CFA9014F5F5F4F5093AF024093E6
:1005E000AE0220553D4FF9018083CCCFFF2009F4A6
:1005F0004BC06FE771E080EB92E00E940504892B0D
:1006000009F44EC085E891E00E94790182EA92E007
:100610000E946C018091880390918903009711F4E6
:100620008CE893E06501C81AD90A0D2C000CEE087D
:10063000FF08F7FE76C06DE28BEE92E00E94FF00AD
:1006400022273327A9012C193D094E095F0919A258
:10065000CE0181967C01CA01B901A30192010E94D9
:10066000D403605DF70162937F01211531054105D7
:10067000510589F7E114F10419F0C7010E946C01DA
:1006800082E191E00E946C010115110509F479CF16
:100690000E94C900882309F474CF0E94000071CF22
:1006A00080EB92E08859914019F48FE991E0ACCF4A
:1006B00063EB71E080EB92E00E94FC03892B19F45C
:1006C0008FEB91E0A1CF6DEC71E080EB92E00E94A6
:1006D0000504892BF9F081ED91E00E94790181EE0A
:1006E00091E00E94790189EF91E00E94790182E115
:1006F00091E00E946C018BE092E00E9479018BE115
:1007000092E00E94790182E492E00E94790188E7F8
:1007100092E07ACF80E892E00E946C0180EB92E058
:1007200073CFA701960119A2CE0181967C01CA015F
:10073000B901A30192010E94D403605DF7016293A5
:100740007F01211531054105510589F793CFEBEE66
:10075000F2E01382128288EE93E0A0E0B0E084839E
:100760009583A683B78384E091E09183808385ECB1
:1007700090E09587848784EC90E09787868780EC6B
:1007800090E0918B808B81EC90E0938B828B82EC5C
:1007900090E0958B848B86EC90E0978B868B118E06
:1007A000128E138E148E0895A1E21A2EAA1BBB1B63
:1007B000FD010DC0AA1FBB1FEE1FFF1FA217B3072D
:1007C000E407F50720F0A21BB30BE40BF50B661F43
:1007D000771F881F991F1A9469F760957095809507
:1007E00090959B01AC01BD01CF010895EE0FFF1F55
:1007F0000590F491E02D0994FB01DC018D910190AD
:1008000080190110D9F3990B0895FB0151915523DB
:10081000A9F0BF01DC014D9145174111E1F759F4F1
:10082000CD010190002049F04D9140154111C9F3CF
:10083000FB014111EFCF81E090E001970895F8941A
:02084000FFCFE8
:1008420000000000FF005F008C004C01BD009B0017
:10085200AF000D0A0048656C6C6F2C20706C6561EE
:1008620073652061736B206D6520736F6D657468AD
:10087200696E670074797065202248656C6C6F221E
:100882002C2022476F6F646279222C2022776562C6
:1008920022206F722022646F736F6D657468696EB7
:1008A2006722206F72206D616B6520757020796FF1
:1008B2007572206F776E20636F6D6D616E64004894
:1008C200656C6C6F0048656C6C6F206261636B20B5
:1008D200617420796F752000476F6F6462790047F9
:1008E2006F6F646279206261636B20617420796F3B
:1008F200752000646F736F6D657468696E67004C74
:10090200696B652077686174203F3F2000776562DC
:1009120000485454502F312E3120323030204F4B6A
:1009220000436F6E74656E742D547970653A20744D
:100932006578742F68746D6C00436F6E6E656374B6
:10094200696F6E3A20636C6F7365003C21444F43BC
:10095200545950452068746D6C3E003C68746D6C4F
:100962003E3C686561643E3C7469746C653E544506
:1009720053543C2F7469746C653E3C2F6865616406
:100982003E003C626F64793E3C68313E48656C6C67
:100992006F2066726F6D207777772E74686562724A
:1009A200656164626F6172642E63613C2F68313EDF
:1009B2003C2F626F64793E003C2F68746D6C3E0080
:1009C2004920646F6E7420756E6465727374616E13
:1009D2006420796F75200A596F7520736169643AD2
:0E09E2002000467265652052616D203D2000A8
:00000001FF
