:100000000C942A000C9434000C9434000C943400AA
:100010000C9434000C9434000C9434000C94340090
:100020000C9445000C9434000C9434000C9434006F
:100030000C9434000C9434000C9434000C94340070
:100040000C9434000C9434000C9434000C94340060
:100050000C94340011241FBECFE5D4E0DEBFCDBF29
:100060000E9436000C945C000C9400008FEF84BB5F
:1000700015BA17BA88BB96E09EBD8DBD8EEF8CBDBC
:1000800084E088BF89BF7894FFCF1F920F920FB68C
:100090000F9211248F938FEF8DBD8EEF8CBD83B3A4
:1000A000811103C08FEF85BB01C015BA8F910F90EE
:0C00B0000FBE0F901F901895F894FFCF22
:00000001FF
