:100000000C942A000C9434000C9434000C943400AA
:100010000C9434000C9434000C9434000C94340090
:100020000C9434000C9434000C9434000C94340080
:100030000C9434000C9434000C9434000C94340070
:100040000C9434000C9434000C9434000C94340060
:100050000C94340011241FBECFE5D4E0DEBFCDBF29
:100060000E9447000C9450000C94000010BC8CE0DF
:1000700089B98AB188618AB980B5866880BD0895DA
:100080005D9BFECF8CB908958BB18CB108950E9411
:1000900036005F9BFECF0E9444000E944000F9CFD3
:0400A000F894FFCF02
:00000001FF
