:100000000C9461000C947E000C947E000C947E0095
:100010000C947E000C947E000C947E000C947E0068
:100020000C947E000C947E000C947E000C947E0058
:100030000C947E000C947E000C947E000C947E0048
:100040000C94E6010C947E000C947E000C947E00CF
:100050000C947E000C947E000C947E000C947E0028
:100060000C947E000C947E00000000002400270009
:100070002A0000000000250028002B0000000000DE
:1000800023002600290004040404040404040202DA
:100090000202020203030303030301020408102007
:1000A0004080010204081020010204081020000012
:1000B0000008000201000003040700000000000027
:1000C000000011241FBECFEFD8E0DEBFCDBF11E08E
:1000D000A0E0B1E0E2EDF5E002C005900D92AC3099
:1000E000B107D9F721E0ACE0B1E001C01D92A73122
:1000F000B207E1F70E9430020C94E7020C94000072
:10010000833081F028F4813099F08230A9F008958D
:100110008730A9F08830C9F08430B1F48091800034
:100120008F7D03C0809180008F7780938000089539
:1001300084B58F7784BD089584B58F7DFBCF809182
:10014000B0008F778093B00008958091B0008F7DCC
:10015000F9CF1F93CF93DF93282F30E0F901E255B9
:10016000FF4F8491F901E656FF4FD491F901EA5708
:10017000FF4FC491CC23A9F0162F81110E9480005B
:10018000EC2FF0E0EE0FFF1FEE58FF4FA591B4915A
:100190008FB7F894EC91111108C0D095DE23DC9351
:1001A0008FBFDF91CF911F910895DE2BF8CFCF93B2
:1001B000DF9390E0FC01E656FF4F24918A579F4F52
:1001C000FC0184918823D1F090E0880F991FFC01F5
:1001D000E859FF4FA591B491FC01EE58FF4FC5912E
:1001E000D491623071F49FB7F8943C91822F80953E
:1001F00083238C93E8812E2B28839FBFDF91CF919F
:1002000008958FB7F894EC912E2B2C938FBFF6CFD7
:100210001F93CF93DF93182FEB0161E00E94D7006B
:10022000209739F460E0812FDF91CF911F910C94DA
:10023000A900CF3FD10511F461E0F5CFE12FF0E047
:10024000E255FF4FE491E33031F140F4E130B1F099
:10025000E230E1F0C038D1057CF7E4CFE73029F196
:10026000E83059F1E430B1F78091800080628093EA
:100270008000D0938B00C0938A0004C084B580684E
:1002800084BDC7BDDF91CF911F91089584B5806271
:1002900084BDC8BDF7CF80918000806880938000C6
:1002A000D0938900C0938800EDCF8091B000806822
:1002B0008093B000C093B300E5CF8091B00080621E
:1002C0008093B000C093B400DDCF3FB7F894809125
:1002D000110190911201A0911301B091140126B562
:1002E000A89B05C02F3F19F00196A11DB11D3FBF6E
:1002F000BA2FA92F982F8827BC01CD01620F711D3D
:10030000811D911D42E0660F771F881F991F4A9536
:10031000D1F708958F929F92AF92BF92CF92DF92C2
:10032000EF92FF920E9465014B015C0185E0C82EAF
:10033000D12CE12CF12C0E946501681979098A09F8
:100340009B09683E734081059105A8F321E0C21A1C
:10035000D108E108F10888EE880E83E0981EA11C00
:10036000B11CC114D104E104F10429F7FF90EF900E
:10037000DF90CF90BF90AF909F908F9008951F9384
:10038000CF93DF93D0E0C0E0E0911501F09116012A
:10039000EE0FFF1FE050FF4F1081BE01812F0E9422
:1003A00008010E948A012196C11581E0D80761F7F2
:1003B000CFEFD0E0BE01812F0E9408010E948A0188
:1003C0002197C0F7DF91CF911F9108951F920F924F
:1003D0000FB60F9211242F933F938F939F93AF9358
:1003E000BF9380910D0190910E01A0910F01B091EA
:1003F000100130910C0123E0230F2D3758F50196A1
:10040000A11DB11D20930C0180930D0190930E014D
:10041000A0930F01B09310018091110190911201EE
:10042000A0911301B09114010196A11DB11D8093FB
:10043000110190931201A0931301B0931401BF9185
:10044000AF919F918F913F912F910F900FBE0F9081
:100450001F90189526E8230F0296A11DB11DD2CF3B
:10046000789484B5826084BD84B5816084BD85B58F
:10047000826085BD85B5816085BD80916E0081609B
:1004800080936E0010928100809181008260809341
:100490008100809181008160809381008091800043
:1004A0008160809380008091B10084608093B1006E
:1004B0008091B00081608093B00080917A00846068
:1004C00080937A0080917A00826080937A00809194
:1004D0007A00816080937A0080917A0080688093AE
:1004E0007A001092C1001092160110921501C0916D
:1004F0001501D0911601C630D1057CF4FE01EE0F36
:10050000FF1FE050FF4F61E080810E94D7002196DD
:10051000D0931601C0931501EACF62E08EE00E94ED
:10052000D7000CEB10E098EAE92E90E0F92E24E9D0
:10053000C22E20E0D22E30E0A32E30E0B32EC5E054
:10054000D0E0F8018491F7019490F601849088201E
:1005500051F181110E948000E82DF0E0EE0FFF1FA5
:10056000E458FF4FA591B4918C919822E1F010923C
:100570001601109215018090150190901601F6E079
:100580008F16910454F40E94BF018FEF881A980AC5
:100590009092160180921501EECFA114B10489F258
:1005A0000E940000CECFD0931601C0931501809019
:1005B00015019090160197FCF0CF0E94BF01E1E079
:1005C0008E1A91089092160180921501F0CFF8943E
:0205D000FFCF5B
:0C05D20003000500060009000A000B00F1
:00000001FF
