:100000000C942A000C9441010C9441010C94410180
:100010000C9441010C9441010C9441010C94410158
:100020000C9441010C9441010C9441010C94410148
:100030000C9441010C9441010C9441010C94410138
:100040000C9441010C9441010C9441010C94410128
:100050000C94410111241FBECFE5D4E0DEBFCDBF1B
:0C0060000E9452000C943400F894FFCF72
:10006C00554150205349534D494B00416B686D6DC0
:10007C0061644E697A61720032303531353033301B
:10008C003031313130343000494E505554204348D2
:08009C0041524143544552005A
:1000A4000E9405010E9430016CE670E080E00E942D
:1000B400E5002FE78AE196E0215080409040E1F787
:1000C40000C000000E94230167E770E080E00E9406
:1000D400E50080EC0E948F0064E870E080E00E94FC
:1000E400E5002FE181EA97E0215080409040E1F75C
:1000F40000C000000E94230164E970E080E00E94D7
:10010400E5005F9BFECF0E943E010E943A0160E041
:0A01140070E080E00E94E500F4CFE7
:10011E0098B39F70282F207F922B98BB98B39E7F09
:10012E0098BB98B3926098BB000098B39D7F98BB24
:10013E0032E43A95F1F700C028B330E1839FC00155
:10014E001124922F9F70892B88BB88B3826088BB45
:10015E00000088B38D7F88BB83EF91E00197F1F7A4
:06016E0000C0000008952E
:1001740098B39F70282F207F922B98BB98B39160DF
:1001840098BB98B3926098BB000098B39D7F98BBCE
:1001940032E43A95F1F700C028B330E1839FC001FF
:1001A4001124922F9F70892B88BB88B3826088BBEF
:1001B400000088B38D7F88BB83EF91E00197F1F74E
:0601C40000C000000895D8
:1001CA00CF92DF92EF92CF93DF936B01E82EC0E0DC
:1001DA00D0E003C00E94BA002196AE2DC6018C0F52
:1001EA009D1FA11DD7FDAA95FC018491A7FD8081C1
:1001FA008111F0CFDF91CF91EF90DF90CF900895EA
:10020A008FEF87BB87E893E10197F1F700C0000001
:10021A0082E00E948F0088E20E948F008CE00E9498
:10022A008F0086E00E948F0081E00E948F0083EF9A
:0C023A0091E00197F1F700C0000008956A
:1002460081E00E948F0083EF91E00197F1F700C0F3
:0A025600000080E80E948F00089568
:1002600010BC8CE089B98AB188618AB980B586688A
:0402700080BD0895B0
:080274005D9BFECF8CB90895DB
:06027C008BB18CB1089566
:040282000C940000D8
:00000001FF
