:020000040000FA
:100000000C9461000C947E000C947E000C947E0095
:100010000C947E000C947E000C947E000C947E0068
:100020000C947E000C947E000C947E000C947E0058
:100030000C947E000C947E000C947E000C947E0048
:100040000C94BF010C947E000C947E000C947E00F6
:100050000C947E000C947E000C947E000C947E0028
:100060000C947E000C947E00000000002400270009
:100070002A0000000000250028002B0000000000DE
:1000800023002600290004040404040404040202DA
:100090000202020203030303030301020408102007
:1000A0004080010204081020010204081020000012
:1000B0000008000201000003040700000000000027
:1000C000000011241FBECFEFD8E0DEBFCDBF11E08E
:1000D000A0E0B1E0E2EBF5E002C005900D92AC309B
:1000E000B107D9F721E0ACE0B1E001C01D92A53124
:1000F000B207E1F70E9409020C94D7020C940000A9
:10010000833081F028F4813099F08230A9F008958D
:100110008730A9F08830C9F08430B1F48091800034
:100120008F7D03C0809180008F7780938000089539
:1001300084B58F7784BD089584B58F7DFBCF809182
:10014000B0008F778093B00008958091B0008F7DCC
:10015000F9CF1F93CF93DF93282F30E0F901E255B9
:10016000FF4F8491F901E656FF4FD491F901EA5708
:10017000FF4FC491CC23A9F0162F81110E9480005B
:10018000EC2FF0E0EE0FFF1FEE58FF4FA591B4915A
:100190008FB7F894EC91111108C0D095DE23DC9351
:1001A0008FBFDF91CF911F910895DE2BF8CFCF93B2
:1001B000DF9390E0FC01E656FF4F24918A579F4F52
:1001C000FC0184918823D1F090E0880F991FFC01F5
:1001D000E859FF4FA591B491FC01EE58FF4FC5912E
:1001E000D491623071F49FB7F8943C91822F80953E
:1001F00083238C93E8812E2B28839FBFDF91CF919F
:1002000008958FB7F894EC912E2B2C938FBFF6CFD7
:100210001F93CF93DF93182FEB0161E00E94D7006B
:10022000209739F460E0812FDF91CF911F910C94DA
:10023000A900CF3FD10511F461E0F5CFE12FF0E047
:10024000E255FF4FE491E33031F140F4E130B1F099
:10025000E230E1F0C038D1057CF7E4CFE73029F196
:10026000E83059F1E430B1F78091800080628093EA
:100270008000D0938B00C0938A0004C084B580684E
:1002800084BDC7BDDF91CF911F91089584B5806271
:1002900084BDC8BDF7CF80918000806880938000C6
:1002A000D0938900C0938800EDCF8091B000806822
:1002B0008093B000C093B300E5CF8091B00080621E
:1002C0008093B000C093B400DDCF3FB7F894809125
:1002D000110190911201A0911301B091140126B562
:1002E000A89B05C02F3F19F00196A11DB11D3FBF6E
:1002F000BA2FA92F982F8827BC01CD01620F711D3D
:10030000811D911D42E0660F771F881F991F4A9536
:10031000D1F708958F929F92AF92BF92CF92DF92C2
:10032000EF92FF920E9465014B015C0185E0C82EAF
:10033000D12CE12CF12C0E946501681979098A09F8
:100340009B09683E734081059105A8F321E0C21A1C
:10035000D108E108F10888EE880E83E0981EA11C00
:10036000B11CC114D104E104F10429F7FF90EF900E
:10037000DF90CF90BF90AF909F908F9008951F9285
:100380000F920FB60F9211242F933F938F939F9349
:10039000AF93BF9380910D0190910E01A0910F0139
:1003A000B091100130910C0123E0230F2D3758F547
:1003B0000196A11DB11D20930C0180930D01909316
:1003C0000E01A0930F01B093100180911101909143
:1003D0001201A0911301B09114010196A11DB11D4C
:1003E0008093110190931201A0931301B093140113
:1003F000BF91AF919F918F913F912F910F900FBE21
:100400000F901F90189526E8230F0296A11DB11D8D
:10041000D2CF789484B5826084BD84B5816084BD78
:1004200085B5826085BD85B5816085BD80916E0092
:10043000816080936E0010928100809181008260C3
:100440008093810080918100816080938100809100
:1004500080008160809380008091B10084608093EF
:10046000B1008091B00081608093B00080917A00EB
:10047000846080937A0080917A00826080937A0011
:1004800080917A00816080937A0080917A00806800
:1004900080937A001092C1000CE011E0C0E0D1E03E
:1004A0008881229661E00E94D7000C171D07C1F7D2
:1004B00062E08EE00E94D7004CEB642E40E0742E88
:1004C00058EAC52E50E0D52E64E9A62E60E0B62E7F
:1004D00070E0872E70E0972EF3018491F60114915D
:1004E000F5010491011128C005E010E0F12CE12C88
:1004F000F801EE0FFF1FE050FF4F5080B701852D30
:100500000E9408010E948A018FEFE81AF80AE1149C
:10051000E1E0FE0699F7EE24EA94F12CB701852D6F
:100520000E9408010E948A01F1E0EF1AF108B0F779
:1005300001501109D8F634C081110E948000E02FCB
:10054000F0E0EE0FFF1FE458FF4FA591B4918C919E
:10055000182309F4C9CF00E011E0F12CE12CF801D7
:100560005080B701852D0E9408010E948A01FFEF8B
:10057000EF1AFF0AE11481E0F80689F7EE24EA9405
:10058000F12CB701852D0E9408010E948A01E1E04B
:10059000EE1AF108B0F70E5F1F4FC017D107E9F64A
:1005A0008114910409F498CF0E94000095CFF8942B
:0E05B000FFCF03000500060009000A000B0043
:107E0000112484B714BE81FFF0D085E080938100F7
:107E100082E08093C00088E18093C10086E0809377
:107E2000C20080E18093C4008EE0C9D0259A86E02C
:107E300020E33CEF91E0309385002093840096BBD3
:107E4000B09BFECF1D9AA8958150A9F7CC24DD24C4
:107E500088248394B5E0AB2EA1E19A2EF3E0BF2EE7
:107E6000A2D0813461F49FD0082FAFD0023811F036
:107E7000013811F484E001C083E08DD089C08234E0
:107E800011F484E103C0853419F485E0A6D080C0E4
:107E9000853579F488D0E82EFF2485D0082F10E0AE
:107EA000102F00270E291F29000F111F8ED06801E7
:107EB0006FC0863521F484E090D080E0DECF843638
:107EC00009F040C070D06FD0082F6DD080E0C81688
:107ED00080E7D80618F4F601B7BEE895C0E0D1E017
:107EE00062D089930C17E1F7F0E0CF16F0E7DF06D8
:107EF00018F0F601B7BEE89568D007B600FCFDCFD4
:107F0000A601A0E0B1E02C9130E011968C91119780
:107F100090E0982F8827822B932B1296FA010C0160
:107F200087BEE89511244E5F5F4FF1E0A038BF0790
:107F300051F7F601A7BEE89507B600FCFDCF97BE46
:107F4000E89526C08437B1F42ED02DD0F82E2BD052
:107F50003CD0F601EF2C8F010F5F1F4F84911BD097
:107F6000EA94F801C1F70894C11CD11CFA94CF0C13
:107F7000D11C0EC0853739F428D08EE10CD085E9AC
:107F80000AD08FE07ACF813511F488E018D01DD067
:107F900080E101D065CF982F8091C00085FFFCCF94
:107FA0009093C60008958091C00087FFFCCF809118
:107FB000C00084FD01C0A8958091C6000895E0E648
:107FC000F0E098E1908380830895EDDF803219F02E
:107FD00088E0F5DFFFCF84E1DECF1F93182FE3DFCA
:107FE0001150E9F7F2DF1F91089580E0E8DFEE27F6
:047FF000FF270994CA
:027FFE00040479
:00000001FF
