:100000000C942A000C9434000C9434000C943400AA
:100010000C9434000C9434000C9434000C94430081
:100020000C9434000C9434000C9434000C94340080
:100030000C9434000C9434000C9434000C94340070
:100040000C9434000C9434000C9434000C94340060
:100050000C94340011241FBECFE5D4E0DEBFCDBF29
:100060000E9436000C945B000C9400008FEF84BB60
:1000700015BA95E09EBD1DBC1CBC89BD88E088BF3B
:1000800089BF7894FFCF1F920F920FB60F92112461
:100090008F931DBC1CBC8FEF89BD88BD83B38111BC
:1000A00003C08FEF85BB01C015BA8F910F900FBEB3
:0A00B0000F901F901895F894FFCFF1
:00000001FF
