:100000000C942A000C9444010C9444010C94440177
:100010000C9444010C9444010C9444010C9444014C
:100020000C9444010C9444010C9444010C9444013C
:100030000C9444010C9444010C9444010C9444012C
:100040000C9444010C9444010C9444010C9444011C
:100050000C94440111241FBECFE5D4E0DEBFCDBF18
:0C0060000E9443000C943400F894FFCF81
:10006C005072616B74696B756D005369736D696B5C
:09007C0000426162204C43440083
:10008600CF93DF93CDB7DEB728970FB6F894DEBFD0
:100096000FBECDBF0E94EF006CE670E080E00E94CC
:1000A600CF0080EC0E94790066E770E080E00E9455
:1000B600CF002FE78AE196E0215080409040E1F79B
:1000C60000C000000E942A012DE730E040E088E0F1
:1000D600F901DE011196742F0E943701AE014F5FC0
:0C00E6005F4F64E081E00E940D01FFCF3D
:1000F20098B39F70282F207F922B98BB98B39E7F36
:1001020098BB98B3926098BB000098B39D7F98BB50
:1001120032E43A95F1F700C028B330E1839FC00181
:100122001124922F9F70892B88BB88B3826088BB71
:10013200000088B38D7F88BB83EF91E00197F1F7D0
:0601420000C0000008955A
:1001480098B39F70282F207F922B98BB98B391600B
:1001580098BB98B3926098BB000098B39D7F98BBFA
:1001680032E43A95F1F700C028B330E1839FC0012B
:100178001124922F9F70892B88BB88B3826088BB1B
:10018800000088B38D7F88BB83EF91E00197F1F77A
:0601980000C00000089504
:10019E00CF92DF92EF92CF93DF936B01E82EC0E008
:1001AE00D0E003C00E94A4002196AE2DC6018C0F94
:1001BE009D1FA11DD7FDAA95FC018491A7FD8081ED
:1001CE008111F0CFDF91CF91EF90DF90CF90089516
:1001DE008FEF87BB87E893E10197F1F700C000002E
:1001EE0082E00E94790088E20E9479008CE00E94F1
:1001FE00790086E00E94790081E00E94790083EF09
:0C020E0091E00197F1F700C00000089596
:10021A00CF93DF93EA01811108C0603130F4862F51
:10022A008F7080680E94790009C0813039F460318A
:10023A0028F4862F8F70806C0E947900BE0180E8B6
:0A024A000E94CF00DF91CF910895CC
:1002540081E00E94790083EF91E00197F1F700C0FB
:0A026400000080E80E947900089570
:10026E00992777FD05C005900D920197E1F7089546
:0A027E0001900D920197E1F7089539
:040288000C940000D2
:00000001FF
