:020000040000FA
:100000000C948B000C94B3000C94B3000C94B300CC
:100010000C94B3000C94B3000C94B3000C94B30094
:100020000C94B3000C94B3000C94B3000C94B30084
:100030000C94B3000C94B3000C94B3000C94B30074
:100040000C94B2020C94B3000C9480020C945A02EB
:100050000C94B3000C94B3000C94B3000C94B30054
:100060000C94B3000C94B3003230003139003138B5
:100070000031370031360031350031340031330082
:10008000313200313100313000390038003700366C
:10009000003500340033003200310099009700959C
:1000A00000930091008F008D008B008900860083F3
:1000B0000080007D007A007700740071006E006B94
:1000C00000680000000008000201000003040700AF
:1000D0000000000000000000000000250028002BA8
:1000E0000000000000240027002A00040404040487
:1000F00004040402020202020203030303030301D5
:1001000002040810204080010204081020010204AB
:10011000081020000A0511241FBECFEFD8E0DEBF73
:10012000CDBF11E0A0E0B1E0E2EEFAE002C0059040
:100130000D92AE3AB107D9F723E0AEEAB1E001C0C3
:100140001D92AC30B207E1F710E0CBE8D0E004C07C
:100150002197FE010E946005CA38D107C9F70E94A5
:10016000FC020C946F050C94000090E0FC01E1503F
:10017000FF4F249185519F4FFC018491882399F072
:1001800090E0880F991FFC01EF51FF4FA591B491AA
:10019000FC01E952FF4F859194918FB7F894EC914F
:1001A000E22BEC938FBF089590E0FC01ED53FF4FDD
:1001B0002491FC01E150FF4F3491FC01E551FF4FC8
:1001C000E491EE23B1F0222339F02330E9F090F4EA
:1001D000213001F1223011F1F0E0EE0FFF1FE95262
:1001E000FF4FA591B4918FB7F894EC913E2B3C93BF
:1001F0008FBF08952730A9F02830C9F0243061F767
:10020000809180008F7D03C0809180008F778093E4
:100210008000E2CF84B58F7784BDDECF84B58F7D3B
:10022000FBCF8091B0008F778093B000D5CF8091C5
:10023000B0008F7DF9CFAF92BF92CF92DF92EF9255
:10024000FF920F931F93CF93DF936C017B018B0180
:10025000040F151FEB015E01AE18BF08C017D107D0
:1002600059F06991D601ED91FC910190F081E02D5A
:10027000C6010995892B79F7C501DF91CF911F91AF
:100280000F91FF90EF90DF90CF90BF90AF900895C7
:10029000FC01538D448D252F30E0842F90E0821B8C
:1002A000930B541710F0CF96089501970895FC0111
:1002B000918D828D981761F0A28DAE0FBF2FB11D69
:1002C0005D968C91928D9F5F9F73928F90E00895C1
:1002D0008FEF9FEF0895FC01918D828D981731F07B
:1002E000828DE80FF11D858D90E008958FEF9FEFCF
:1002F0000895FC01918D228D892F90E0805C9F4FA5
:10030000821B91098F73992708958BE692E00E94D2
:10031000790121E0892B09F420E0822F089580E003
:1003200090E0892B29F00E94850181110C94000036
:100330000895FC01A48DA80FB92FB11DA35ABF4F7A
:100340002C91848D90E001968F739927848FA689D4
:10035000B7892C93A089B1898C91837080648C9328
:10036000938D848D981306C00288F389E02D8081D7
:100370008F7D80830895EF92FF920F931F93CF9309
:10038000DF93EC0181E0888F9B8D8C8D98131AC0D0
:10039000E889F989808185FF15C09FB7F894EE89B7
:1003A000FF896083E889F989808183708064808314
:1003B0009FBF81E090E0DF91CF911F910F91FF905F
:1003C000EF900895F62E0B8D10E00F5F1F4F0F7307
:1003D0001127E02E8C8D8E110CC00FB607FCFACFC2
:1003E000E889F989808185FFF5CFCE010E949901C6
:1003F000F1CFEB8DEC0FFD2FF11DE35AFF4FF08293
:100400009FB7F8940B8FEA89FB8980818062CFCFF8
:10041000CF93DF93EC01888D8823B9F0AA89BB893B
:10042000E889F9898C9185FD03C0808186FD0DC026
:100430000FB607FCF7CF8C9185FFF2CF808185FF47
:10044000EDCFCE010E949901E9CFDF91CF910895C0
:100450003FB7F8948091B3019091B401A091B50198
:10046000B091B60126B5A89B05C02F3F19F00196A3
:10047000A11DB11D3FBFBA2FA92F982F8827BC01FE
:10048000CD01620F711D811D911D42E0660F771F26
:10049000881F991F4A95D1F70895FC01019000200B
:1004A000E9F73197AF01481B590BBC018BE692E08D
:1004B0000C941B011F920F920FB60F9211242F93D1
:1004C0003F934F935F936F937F938F939F93AF93DC
:1004D000BF93EF93FF938BE692E00E949901FF9107
:1004E000EF91BF91AF919F918F917F916F915F91AC
:1004F0004F913F912F910F900FBE0F901F90189525
:100500001F920F920FB60F9211242F938F939F93E8
:10051000EF93FF93E0917B02F0917C028081E09168
:100520008102F091820282FD1BC090818091840241
:100530008F5F8F7320918502821741F0E0918402D2
:10054000F0E0E559FD4F958F80938402FF91EF9184
:100550009F918F912F910F900FBE0F901F90189524
:100560008081F4CF1F920F920FB60F9211242F9318
:100570003F938F939F93AF93BF938091AF019091DF
:10058000B001A091B101B091B2013091AE0123E070
:10059000230F2D3758F50196A11DB11D2093AE01F3
:1005A0008093AF019093B001A093B101B093B201D9
:1005B0008091B3019091B401A091B501B091B601C1
:1005C0000196A11DB11D8093B3019093B401A09336
:1005D000B501B093B601BF91AF919F918F913F91BB
:1005E0002F910F900FBE0F901F90189526E8230FA4
:1005F0000296A11DB11DD2CFCF93DF93CDB7DEB749
:10060000A1970FB6F894DEBF0FBECDBF789484B526
:10061000826084BD84B5816084BD85B5826085BDFE
:1006200085B5816085BD80916E00816080936E008C
:10063000109281008091810082608093810080917E
:10064000810081608093810080918000816080932F
:1006500080008091B10084608093B1008091B000EF
:1006600081608093B00080917A00846080937A00EA
:1006700080917A00826080937A0080917A00816014
:1006800080937A0080917A00806880937A0010923B
:10069000C100E0917B02F0917C0282E08083E091D6
:1006A0007702F09178021082E0917902F0917A025B
:1006B0008FEC808310928302E0917F02F0918002A0
:1006C00086E08083E0917D02F0917E0280818061EE
:1006D0008083E0917D02F0917E028081886080833A
:1006E000E0917D02F0917E02808180688083E091BC
:1006F0007D02F0917E0280818F7D80830E9428029E
:100700002B013C0138ECC32ED12CE12CF12C0E94A2
:1007100028026419750986099709683E73408105A6
:100720009105A8F321E0C21AD108E108F10888EE8A
:10073000480E83E0581E611C711CC114D104E104F1
:10074000F10429F782E191E00E944D0280E791E0F7
:100750000E944D0280E791E00E944D0280E00E94DD
:10076000B50081E00E94B50082E00E94B50083E000
:100770000E94B50084E00E94B50085E00E94B500AB
:1007800086E00E94B50087E00E94B50088E00E94E4
:10079000B50089E00E94B5008AE00E94B5008BE0B8
:1007A0000E94B5008CE00E94B5008DE00E94B5006B
:1007B000CE0101964C012AE0422E512C612C712C65
:1007C00090E0A92E90E0B92E10E08BE692E00E9416
:1007D0007901181619065CF58BE692E00E94570124
:1007E0002091B7013091B8018D3081F4F901E75CB7
:1007F000FD4F108211E0121613060CF010E010925B
:10080000B8011092B701E1CF11E0DFCF22333105FB
:10081000E4F61111F9CFA9014F5F5F4F5093B80172
:100820004093B701275C3D4FF9018083CECF112360
:1008300009F487C08BE9E82E80E0F82E10E000E094
:10084000F7016591749189EB91E00E94370569EB9E
:1008500071E089E392E00E946605892BA9F00F5FA1
:100860001F4FF2E0EF0EF11C0431110549F783E749
:1008700091E00E944D0289E392E00E944D0280E7E0
:1008800091E00E944D021FC0F8013197E331F1055C
:1008900070F7E35BFB4F0C9460056004AD04C0048B
:1008A000C804D304E104F204AF04B104B304B504F2
:1008B000B704B904BB04BD04C204CA04D504E304EC
:1008C00080E00E94D40081EA91E00E944D02809174
:1008D000080390910903009711F48CE093E0640100
:1008E000C81AD90A0D2C000CEE08FF08F7FE7CC0D0
:1008F0006DE28BE692E00E94BB0122273327A9011B
:100900002C193D094E095F0919A28E010F5D1F4F79
:10091000CA01B901A30192010E943E05605DF80180
:1009200062938F01211531054105510589F70115A4
:10093000110519F0C8010E944D0280E791E00E9464
:100940004D02A114B10409F43FCF0E948501882310
:1009500009F43ACF0E94000033CF81E0B2CF87E0A4
:10096000B0CF88E0AECF89E0ACCF8AE0AACF8BE0F1
:10097000A8CF8CE0A6CF8DE0A4CF81E00E94D40068
:1009800082E09FCF81E00E94D40082E00E94D400E8
:1009900083E097CF81E00E94D40082E00E94D400DF
:1009A00083E00E94D40084E08CCF81E00E94D400D8
:1009B00082E00E94D40083E00E94D40084E00E9480
:1009C000D40085E07ECF81E00E94D40082E00E94C6
:1009D000D40083E00E94D40084E00E94D40085E02B
:1009E0000E94D40086E06DCFA701960119A28E0166
:1009F0000F5D1F4FCA01B901A30192010E943E057C
:100A0000605DF80162938F012115310541055105A3
:100A100089F78DCFEBE6F2E01382128288EE93E045
:100A2000A0E0B0E084839583A683B78384E091E05F
:100A30009183808385EC90E09587848784EC90E0B7
:100A40009787868780EC90E0918B808B81EC90E09B
:100A5000938B828B82EC90E0958B848B86EC90E07C
:100A6000978B868B118E128E138E148E0895FB0138
:100A7000DC0105900D920020E1F70895A1E21A2E05
:100A8000AA1BBB1BFD010DC0AA1FBB1FEE1FFF1F32
:100A9000A217B307E407F50720F0A21BB30BE40B82
:100AA000F50B661F771F881F991F1A9469F76095C9
:100AB0007095809590959B01AC01BD01CF01089583
:100AC000EE0FFF1F0590F491E02D0994FB01DC016E
:100AD0008D91019080190110D9F3990B0895F89424
:100AE000FFCF00000000BB011B0148010802790193
:100AF00057016B0148656C6C6F2C20706C656173DD
:100B00006520656E74657220746865206E756D620F
:100B10006572206265747765656E20312D323020F4
:100B2000746F205475726E204F4E20746865204C8F
:100B3000454420616E6420526573657420666F724F
:100B4000205475726E204F666620616C6C204C4597
:100B500044000D0A004920646F6E277420756E648E
:100B600065727374616E64207768617420796F7543
:100B7000207361696421200A596F7520736169646B
:100B80003A2000467265652052616D203D200000CC
:107E0000112484B714BE81FFF0D085E080938100F7
:107E100082E08093C00088E18093C10086E0809377
:107E2000C20080E18093C4008EE0C9D0259A86E02C
:107E300020E33CEF91E0309385002093840096BBD3
:107E4000B09BFECF1D9AA8958150A9F7CC24DD24C4
:107E500088248394B5E0AB2EA1E19A2EF3E0BF2EE7
:107E6000A2D0813461F49FD0082FAFD0023811F036
:107E7000013811F484E001C083E08DD089C08234E0
:107E800011F484E103C0853419F485E0A6D080C0E4
:107E9000853579F488D0E82EFF2485D0082F10E0AE
:107EA000102F00270E291F29000F111F8ED06801E7
:107EB0006FC0863521F484E090D080E0DECF843638
:107EC00009F040C070D06FD0082F6DD080E0C81688
:107ED00080E7D80618F4F601B7BEE895C0E0D1E017
:107EE00062D089930C17E1F7F0E0CF16F0E7DF06D8
:107EF00018F0F601B7BEE89568D007B600FCFDCFD4
:107F0000A601A0E0B1E02C9130E011968C91119780
:107F100090E0982F8827822B932B1296FA010C0160
:107F200087BEE89511244E5F5F4FF1E0A038BF0790
:107F300051F7F601A7BEE89507B600FCFDCF97BE46
:107F4000E89526C08437B1F42ED02DD0F82E2BD052
:107F50003CD0F601EF2C8F010F5F1F4F84911BD097
:107F6000EA94F801C1F70894C11CD11CFA94CF0C13
:107F7000D11C0EC0853739F428D08EE10CD085E9AC
:107F80000AD08FE07ACF813511F488E018D01DD067
:107F900080E101D065CF982F8091C00085FFFCCF94
:107FA0009093C60008958091C00087FFFCCF809118
:107FB000C00084FD01C0A8958091C6000895E0E648
:107FC000F0E098E1908380830895EDDF803219F02E
:107FD00088E0F5DFFFCF84E1DECF1F93182FE3DFCA
:107FE0001150E9F7F2DF1F91089580E0E8DFEE27F6
:047FF000FF270994CA
:027FFE00040479
:00000001FF
