:100000000C942A000C940C010C940C010C940C011F
:100010000C940C010C940C010C940C010C940C012C
:100020000C940C010C940C010C940C010C940C011C
:100030000C940C010C940C010C940C010C940C010C
:100040000C940C010C940C010C940C010C940C01FC
:100050000C940C0111241FBECFE5D4E0DEBFCDBF50
:0C0060000E943D000C943400F894FFCF87
:0D006C0052756E6E696E67205465787400E1
:10007A000E94EE006CE670E080E00E94CE002FE75E
:10008A008AE196E0215080409040E1F700C00000EC
:10009A000DE010E0C0E0D0E00DC08CE10E947800D5
:1000AA002FE986E891E0215080409040E1F700C0B6
:1000BA0000002196C017D10784F3005F1F4FC0E0EC
:1000CA00D0E00DC088E10E9478002FE986E891E02F
:1000DA00215080409040E1F700C000002196C017EF
:0600EA00D10784F3D7CF1B
:1000F00098B39F70282F207F922B98BB98B39E7F38
:1001000098BB98B3926098BB000098B39D7F98BB52
:1001100032E43A95F1F700C028B330E1839FC00183
:100120001124922F9F70892B88BB88B3826088BB73
:10013000000088B38D7F88BB83EF91E00197F1F7D2
:0601400000C0000008955C
:1001460098B39F70282F207F922B98BB98B391600D
:1001560098BB98B3926098BB000098B39D7F98BBFC
:1001660032E43A95F1F700C028B330E1839FC0012D
:100176001124922F9F70892B88BB88B3826088BB1D
:10018600000088B38D7F88BB83EF91E00197F1F77C
:0601960000C00000089506
:10019C00CF92DF92EF92CF93DF936B01E82EC0E00A
:1001AC00D0E003C00E94A3002196AE2DC6018C0F97
:1001BC009D1FA11DD7FDAA95FC018491A7FD8081EF
:1001CC008111F0CFDF91CF91EF90DF90CF90089518
:1001DC008FEF87BB87E893E10197F1F700C0000030
:1001EC0082E00E94780088E20E9478008CE00E94F5
:1001FC00780086E00E94780081E00E94780083EF0E
:0C020C0091E00197F1F700C00000089598
:040218000C94000042
:00000001FF
