:020000040000FA
:100000000C945D000C9485000C9485000C94850084
:100010000C9485000C9485000C9485000C9485004C
:100020000C9485000C9485000C9485000C9485003C
:100030000C9485000C9485000C9485000C9485002C
:100040000C940C020C9485000C947C020C945602C7
:100050000C9485000C9485000C9485000C9485000C
:100060000C9485000C94850000000008000201003B
:100070000003040700000000000000000000000072
:10008000250028002B0000000000240027002A0083
:10009000040404040404040402020202020203032E
:1000A0000303030301020408102040800102040836
:1000B0001020010204081020770511241FBECFEF85
:1000C000D8E0DEBFCDBF11E0A0E0B1E0E6EEFBE09E
:1000D00002C005900D92A83DB107D9F722E0A8ED26
:1000E000B1E001C01D92A63BB207E1F710E0CDE5FB
:1000F000D0E004C02197FE010E94C605CC35D1078F
:10010000C9F70E94AE020C94F1050C94000090E037
:10011000FC01EC55FF4F249180579F4FFC018491C7
:10012000882399F090E0880F991FFC01EA57FF4F50
:10013000A591B491FC01E458FF4F859194918FB73C
:10014000F894EC91E22BEC938FBF0895AF92BF929D
:10015000CF92DF92EF92FF920F931F93CF93DF9393
:100160006C017B018B01040F151FEB015E01AE18C2
:10017000BF08C017D10759F06991D601ED91FC91E4
:100180000190F081E02DC6010995892B79F7C50111
:10019000DF91CF911F910F91FF90EF90DF90CF9063
:1001A000BF90AF900895FC01538D448D252F30E012
:1001B000842F90E0821B930B541710F0CF96089574
:1001C00001970895FC01918D828D981761F0A28DA1
:1001D000AE0FBF2FB11D5D968C91928D9F5F9F7367
:1001E000928F90E008958FEF9FEF0895FC01918D1D
:1001F000828D981731F0828DE80FF11D858D90E08A
:1002000008958FEF9FEF0895FC01918D228D892F26
:1002100090E0805C9F4F821B91098F73992708950E
:1002200085E192E00E94040121E0892B09F420E09D
:10023000822F089580E090E0892B29F00E94100120
:1002400081110C9400000895FC01A48DA80FB92F12
:10025000B11DA35ABF4F2C91848D90E001968F73EE
:100260009927848FA689B7892C93A089B1898C910D
:10027000837080648C93938D848D981306C002885C
:10028000F389E02D80818F7D80830895EF92FF9226
:100290000F931F93CF93DF93EC0181E0888F9B8DA9
:1002A0008C8D98131AC0E889F989808185FF15C063
:1002B0009FB7F894EE89FF896083E889F989808186
:1002C0008370806480839FBF81E090E0DF91CF9155
:1002D0001F910F91FF90EF900895F62E0B8D10E077
:1002E0000F5F1F4F0F731127E02E8C8D8E110CC0E6
:1002F0000FB607FCFACFE889F989808185FFF5CF31
:10030000CE010E942401F1CFEB8DEC0FFD2FF11DEA
:10031000E35AFF4FF0829FB7F8940B8FEA89FB896D
:1003200080818062CFCFCF93DF93EC01888D8823CB
:10033000B9F0AA89BB89E889F9898C9185FD03C048
:10034000808186FD0DC00FB607FCF7CF8C9185FF2D
:10035000F2CF808185FFEDCFCE010E942401E9CF4D
:10036000DF91CF91089590E0FC01E859FF4F24916F
:10037000FC01EC55FF4F3491FC01E057FF4FE49135
:10038000EE23C9F0222339F0233001F1A8F4213003
:1003900019F1223029F1F0E0EE0FFF1FE458FF4F72
:1003A000A591B4918FB7F894EC91611126C0309566
:1003B0003E233C938FBF08952730A9F02830C9F021
:1003C000243049F7809180008F7D03C080918000A8
:1003D0008F7780938000DFCF84B58F7784BDDBCFAC
:1003E00084B58F7DFBCF8091B0008F778093B00074
:1003F000D2CF8091B0008F7DF9CF3E2BDACFFC01B8
:1004000001900020E9F73197AF01481B590BBC015F
:1004100085E192E00C94A6001F920F920FB60F9206
:1004200011242F933F938F939F93AF93BF9380910A
:10043000110290911202A0911302B0911402309116
:10044000100223E0230F2D3758F50196A11DB11D91
:10045000209310028093110290931202A093130232
:10046000B093140280910C0290910D02A0910E02A3
:10047000B0910F020196A11DB11D80930C029093C3
:100480000D02A0930E02B0930F02BF91AF919F9106
:100490008F913F912F910F900FBE0F901F90189545
:1004A00026E8230F0296A11DB11DD2CF1F920F92F5
:1004B0000FB60F9211242F933F934F935F936F9337
:1004C0007F938F939F93AF93BF93EF93FF9385E1B8
:1004D00092E00E942401FF91EF91BF91AF919F9113
:1004E0008F917F916F915F914F913F912F910F90DD
:1004F0000FBE0F901F9018951F920F920FB60F927C
:1005000011242F938F939F93EF93FF93E0912502F4
:10051000F09126028081E0912B02F0912C0282FD65
:100520001BC0908180912E028F5F8F7320912F02CC
:10053000821741F0E0912E02F0E0EB5EFD4F958FC7
:1005400080932E02FF91EF919F918F912F910F90A9
:100550000FBE0F901F9018958081F4CFCF93DF933B
:10056000CDB7DEB7A1970FB6F894DEBF0FBECDBFF3
:10057000789484B5826084BD84B5816084BD85B57E
:10058000826085BD85B5816085BD80916E0081608A
:1005900080936E0010928100809181008260809330
:1005A0008100809181008160809381008091800032
:1005B0008160809380008091B10084608093B1005D
:1005C0008091B00081608093B00080917A00846057
:1005D00080937A0080917A00826080937A00809183
:1005E0007A00816080937A0080917A00806880939D
:1005F0007A001092C100E0912502F091260282E07B
:100600008083E0912102F09122021082E091230286
:10061000F091240280E1808310922D02E091290262
:10062000F0912A0286E08083E0912702F09128026F
:10063000808180618083E0912702F091280280818F
:1006400088608083E0912702F09128028081806891
:100650008083E0912702F091280280818F7D808342
:1006600082E191E00E94FF0180E791E00E94FF019A
:1006700080E00E94870081E00E94870082E00E9463
:10068000870083E00E94870084E00E94870085E065
:100690000E94870086E00E94870087E00E94870012
:1006A00088E00E94870089E00E9487008AE00E941B
:1006B00087008BE00E9487008CE00E9487008DE01D
:1006C0000E9487008E010F5F1F4F9AE0492E512C28
:1006D000612C712C80E0A82E80E0B82EF12C85E1F1
:1006E00092E00E940401181619066CF585E192E06B
:1006F0000E94E2002091D8013091D9018D3091F40F
:10070000F901E652FE4F1082FF24F39412161306ED
:100710000CF0F12C1092D9011092D801E0CFFF24F7
:10072000F394DDCF22333105D4F6F110F8CFA901CF
:100730004F5F5F4F5093D9014093D80126523E4FEF
:10074000F9018083CCCFFF2009F455C061E370E04C
:100750008AED91E00E94CC0561E0892B09F0A2C1ED
:1007600062E370E08AED91E00E94CC05892B09F4E8
:100770004EC061E081E00E94B30188EC91E00E94EC
:10078000FF018091B2029091B302009711F486EBC1
:1007900092E06801C81AD90A0D2C000CEE08FF0877
:1007A000F7FE8FC16DE285E192E00E9446012227AB
:1007B0003327A9012C193D094E095F0919A2CE0161
:1007C00081967C01CA01B901A30192010E94A4058E
:1007D000605DF70162937F012115310541055105E7
:1007E00089F7E114F10419F0C7010E94FF0180E7C5
:1007F00091E00E94FF01A114B10409F46FCF0E949F
:100800001001882309F46ACF0E94000063CF63E3DC
:1008100070E08AED91E00E94CC05892B19F061E02F
:1008200082E0A9CF64E370E08AED91E00E94CC05FC
:10083000892B19F061E083E09ECF65E370E08AEDDB
:1008400091E00E94CC05892B19F061E084E093CF00
:1008500066E370E08AED91E00E94CC05892B19F0E7
:1008600061E085E088CF67E370E08AED91E00E9467
:10087000CC05892B19F061E086E07DCF68E370E05C
:100880008AED91E00E94CC05892B19F061E087E0A8
:1008900072CF69E370E08AED91E00E94CC05892B6C
:1008A00019F061E088E067CF63E771E08AED91E0DD
:1008B0000E94D705892B19F061E089E05CCF66E7DB
:1008C00071E08AED91E00E94D705892B19F061E073
:1008D0008AE051CF69E771E08AED91E00E94D70587
:1008E000892B19F061E08BE046CF6CE771E08AED6F
:1008F00091E00E94D705892B19F061E08CE03BCF95
:100900006FE771E08AED91E00E94D705892B19F01D
:1009100061E08DE030CF62E871E08AED91E00E9405
:10092000D705892B29F061E081E00E94B30177CFE0
:1009300065E871E08AED91E00E94D705892B49F0C6
:1009400061E081E00E94B30161E082E00E94B301B6
:1009500071CF68E871E08AED91E00E94D705892B9C
:1009600069F061E081E00E94B30161E082E00E94F1
:10097000B30161E083E00E94B30167CF6BE871E0EF
:100980008AED91E00E94D705892B89F061E081E032
:100990000E94B30161E082E00E94B30161E083E064
:1009A0000E94B30161E084E00E94B30159CF6EE878
:1009B00071E08AED91E00E94D705892BA9F061E0F2
:1009C00081E00E94B30161E082E00E94B30161E036
:1009D00083E00E94B30161E084E00E94B30161E022
:1009E00085E00E94B30147CF61E971E08AED91E0B3
:1009F0000E94D705892BC9F061E081E00E94B30114
:100A000061E082E00E94B30161E083E00E94B301F3
:100A100061E084E00E94B30161E085E00E94B301DF
:100A200061E086E00E94B30131CF64E971E08AEDB4
:100A300091E00E94D705892BB9F160E081E00E9426
:100A4000B30160E082E00E94B30160E083E00E94B5
:100A5000B30160E084E00E94B30160E085E00E94A1
:100A6000B30160E086E00E94B30160E087E00E948D
:100A7000B30160E088E00E94B30160E089E00E9479
:100A8000B30160E08AE00E94B30160E08BE00E9465
:100A9000B30160E08CE00E94B30160E08DE00E9451
:100AA000B30160E080E067CE8AE991E00E94FF0137
:100AB0008AED91E00E94FF0180E791E00E94FF0132
:100AC0005CCEA701960119A2CE0181967C01CA01D4
:100AD000B901A30192010E94A405605DF701629330
:100AE0007F01211531054105510589F77ACEE5E1F0
:100AF000F2E01382128288EE93E0A0E0B0E08483FB
:100B00009583A683B78384E091E09183808385EC0D
:100B100090E09587848784EC90E09787868780ECC7
:100B200090E0918B808B81EC90E0938B828B82ECB8
:100B300090E0958B848B86EC90E0978B868B118E62
:100B4000128E138E148E0895A1E21A2EAA1BBB1BBF
:100B5000FD010DC0AA1FBB1FEE1FFF1FA217B30789
:100B6000E407F50720F0A21BB30BE40BF50B661F9F
:100B7000771F881F991F1A9469F760957095809563
:100B800090959B01AC01BD01CF010895EE0FFF1FB1
:100B90000590F491E02D0994FC018191861721F0D4
:100BA0008823D9F7992708953197CF010895FB013C
:100BB00051915523A9F0BF01DC014D914517411119
:100BC000E1F759F4CD010190002049F04D91401515
:100BD0004111C9F3FB014111EFCF81E090E0019792
:100BE0000895F894FFCF000000004601A600D3004E
:100BF00093010401E200F60048656C6C6F2C2070D4
:100C00006C6561736520656E74657220746865201B
:100C10006E756D626572206265747765656E2031F0
:100C20002D323020746F205475726E204F4E207418
:100C30006865204C454420616E642052657365747C
:100C400020666F72205475726E204F666620616C4C
:100C50006C204C4544000D0A003130003131003128
:100C60003200313300313400313500313600313754
:100C7000003138003139003230005265736574003C
:100C80004920646F6E277420756E64657273746199
:100C90006E64207768617420796F75207361696470
:100CA00021200A596F7520736169643A20004D65EF
:0E0CB0006D6F7279206B6F736F6E673A200064
:107E0000112484B714BE81FFF0D085E080938100F7
:107E100082E08093C00088E18093C10086E0809377
:107E2000C20080E18093C4008EE0C9D0259A86E02C
:107E300020E33CEF91E0309385002093840096BBD3
:107E4000B09BFECF1D9AA8958150A9F7CC24DD24C4
:107E500088248394B5E0AB2EA1E19A2EF3E0BF2EE7
:107E6000A2D0813461F49FD0082FAFD0023811F036
:107E7000013811F484E001C083E08DD089C08234E0
:107E800011F484E103C0853419F485E0A6D080C0E4
:107E9000853579F488D0E82EFF2485D0082F10E0AE
:107EA000102F00270E291F29000F111F8ED06801E7
:107EB0006FC0863521F484E090D080E0DECF843638
:107EC00009F040C070D06FD0082F6DD080E0C81688
:107ED00080E7D80618F4F601B7BEE895C0E0D1E017
:107EE00062D089930C17E1F7F0E0CF16F0E7DF06D8
:107EF00018F0F601B7BEE89568D007B600FCFDCFD4
:107F0000A601A0E0B1E02C9130E011968C91119780
:107F100090E0982F8827822B932B1296FA010C0160
:107F200087BEE89511244E5F5F4FF1E0A038BF0790
:107F300051F7F601A7BEE89507B600FCFDCF97BE46
:107F4000E89526C08437B1F42ED02DD0F82E2BD052
:107F50003CD0F601EF2C8F010F5F1F4F84911BD097
:107F6000EA94F801C1F70894C11CD11CFA94CF0C13
:107F7000D11C0EC0853739F428D08EE10CD085E9AC
:107F80000AD08FE07ACF813511F488E018D01DD067
:107F900080E101D065CF982F8091C00085FFFCCF94
:107FA0009093C60008958091C00087FFFCCF809118
:107FB000C00084FD01C0A8958091C6000895E0E648
:107FC000F0E098E1908380830895EDDF803219F02E
:107FD00088E0F5DFFFCF84E1DECF1F93182FE3DFCA
:107FE0001150E9F7F2DF1F91089580E0E8DFEE27F6
:047FF000FF270994CA
:027FFE00040479
:00000001FF
