:100000000C942A000C9434000C9434000C943400AA
:100010000C9434000C9434000C9434000C94340090
:100020000C9434000C9434000C9434000C94340080
:100030000C9434000C9434000C9434000C94340070
:100040000C9434000C9434000C9434000C94340060
:100050000C94340011241FBECFE5D4E0DEBFCDBF29
:100060000E9442000C9453000C94000087B18064FD
:1000700087B986B1866C86B986B1806486B93699AF
:10008000FECF08951ABA1BBA8FEF87BB88BB0E94B8
:10009000360086B1806486B93699FECF84B195B1B9
:0A00A000809588BBF6CFF894FFCFDF
:00000001FF
