:020000040000FA
:100000000C94F2000C941A010C941A010C941A012D
:100010000C941A010C941A010C941A010C941A01F4
:100020000C941A010C941A010C941A010C941A01E4
:100030000C941A010C941A010C941A010C941A01D4
:100040000C94DA020C941A010C94A8020C9482020B
:100050000C941A010C941A010C941A010C941A01B4
:100060000C941A010C941A0177656200646F736F27
:100070006D657468696E6700476F6F6462790048E8
:10008000656C6C6F004C696B6520776861743F002C
:10009000476F6F646279206261636B2061742079BD
:1000A0006F75200048656C6C6F206261636B206126
:1000B0007420796F7520004920646F6E7420756E0E
:1000C0006465727374616E6420796F75200A596F6C
:1000D0007520736169643A20003C2F626F64793E39
:1000E0003C2F68746D6C3E0A003C21444F435459C8
:1000F00050452068746D6C3E3C68746D6C3E3C6885
:100100006561643E3C7469746C653E48656C6C6FF7
:100110002066726F6D207777772E746865627265DE
:100120006164626F6172642E63613C2F7469746CE8
:10013000653E3C2F686561643E3C626F64793E00B9
:10014000485454502F312E3120323030204F4B0A3A
:10015000436F6E74656E742D547970653A207465C2
:1001600078742F68746D6C0A436F6E6E6563746982
:100170006F6E3A20636C6F73650A0048656C6C6F34
:100180002C20706C656173652061736B206D652038
:10019000736F6D657468696E670A74797065202283
:1001A00048656C6C6F222C2022476F6F6462792245
:1001B0002C202277656222206F7222646F736F6D2C
:1001C000657468696E67220A007F0078006C0068B9
:1001D000007B014001E900D900B700A40090008530
:1001E0000000C90411241FBECFEFD8E0DEBFCDBF91
:1001F00011E0A0E0B1E0E0E6FAE002C005900D9267
:10020000A033B107D9F722E0A0E3B1E001C01D920D
:10021000AE38B207E1F710E0C2EFD0E004C021979A
:10022000FE010E941F05C13FD107C9F70E942403A8
:100230000C942E050C940000AF92BF92CF92DF92E7
:10024000EF92FF920F931F93CF93DF936C017B018B
:100250008B01040F151FEB015E01AE18BF08C0171C
:10026000D10759F06991D601ED91FC910190F0818F
:10027000E02DC6010995892B79F7C501DF91CF9152
:100280001F910F91FF90EF90DF90CF90BF90AF90B4
:100290000895FC01538D448D252F30E0842F90E08C
:1002A000821B930B541710F0CF9608950197089571
:1002B000FC01918D828D981761F0A28DAE0FBF2F3A
:1002C000B11D5D968C91928D9F5F9F73928F90E090
:1002D00008958FEF9FEF0895FC01918D828D9817FF
:1002E00031F0828DE80FF11D858D90E008958FEF3C
:1002F0009FEF0895FC01918D228D892F90E0805C05
:100300009F4F821B91098F73992708958DEE91E07D
:100310000E947A0121E0892B09F420E0822F0895C0
:1003200080E090E0892B29F00E94860181110C94D5
:1003300000000895FC01A48DA80FB92FB11DA35A88
:10034000BF4F2C91848D90E001968F739927848FF5
:10035000A689B7892C93A089B1898C918370806418
:100360008C93938D848D981306C00288F389E02DB9
:1003700080818F7D80830895EF92FF920F931F936A
:10038000CF93DF93EC0181E0888F9B8D8C8D981348
:100390001AC0E889F989808185FF15C09FB7F89454
:1003A000EE89FF896083E889F989808183708064A0
:1003B00080839FBF81E090E0DF91CF911F910F91EB
:1003C000FF90EF900895F62E0B8D10E00F5F1F4FFA
:1003D0000F731127E02E8C8D8E110CC00FB607FC09
:1003E000FACFE889F989808185FFF5CFCE010E9497
:1003F0009A01F1CFEB8DEC0FFD2FF11DE35AFF4F6A
:10040000F0829FB7F8940B8FEA89FB898081806224
:10041000CFCFCF93DF93EC01888D8823B9F0AA89E1
:10042000BB89E889F9898C9185FD03C0808186FDAF
:100430000DC00FB607FCF7CF8C9185FFF2CF8081FE
:1004400085FFEDCFCE010E949A01E9CFDF91CF91D8
:1004500008953FB7F8948091B5019091B601A091AD
:10046000B701B091B80126B5A89B05C02F3F19F080
:100470000196A11DB11D3FBFBA2FA92F982F882724
:10048000BC01CD01620F711D811D911D42E0660FFF
:10049000771F881F991F4A95D1F70895FC01019095
:1004A0000020E9F73197AF01481B590BBC018DEED5
:1004B00091E00C941C01009711F00C944E0290E016
:1004C00080E00895CF93DF93D0E0C0E0009719F06B
:1004D0000E944E02EC0182E191E00E944E028C0FDC
:1004E0009D1FDF91CF910895660F771FFC01E60FE6
:1004F000F71F6591749180E391E00E94F60480E318
:1005000091E008951F920F920FB60F9211242F932E
:100510003F934F935F936F937F938F939F93AF938B
:10052000BF93EF93FF938DEE91E00E949A01FF91AC
:10053000EF91BF91AF919F918F917F916F915F915B
:100540004F913F912F910F900FBE0F901F901895D4
:100550001F920F920FB60F9211242F938F939F9398
:10056000EF93FF93E091FD01F091FE018081E09116
:100570000302F091040282FD1BC09081809106026B
:100580008F5F8F7320910702821741F0E09106027E
:10059000F0E0E351FE4F958F80930602FF91EF91BB
:1005A0009F918F912F910F900FBE0F901F901895D4
:1005B0008081F4CF1F920F920FB60F9211242F93C8
:1005C0003F938F939F93AF93BF938091B10190918D
:1005D000B201A091B301B091B4013091B00123E018
:1005E000230F2D3758F50196A11DB11D2093B001A1
:1005F0008093B1019093B201A093B301B093B40181
:100600008091B5019091B601A091B701B091B80168
:100610000196A11DB11D8093B5019093B601A093E1
:10062000B701B093B801BF91AF919F918F913F9166
:100630002F910F900FBE0F901F90189526E8230F53
:100640000296A11DB11DD2CFCF93DF93CDB7DEB7F8
:10065000A1970FB6F894DEBF0FBECDBF789484B5D6
:10066000826084BD84B5816084BD85B5826085BDAE
:1006700085B5816085BD80916E00816080936E003C
:10068000109281008091810082608093810080912E
:1006900081008160809381008091800081608093DF
:1006A00080008091B10084608093B1008091B0009F
:1006B00081608093B00080917A00846080937A009A
:1006C00080917A00826080937A0080917A008160C4
:1006D00080937A0080917A00806880937A001092EB
:1006E000C100E091FD01F091FE0182E08083E09184
:1006F000F901F091FA011082E091FB01F091FC0107
:100700008FEC808310920502E0910102F0910202C9
:1007100086E08083E091FF01F0910002808180619A
:100720008083E091FF01F0910002808188608083E6
:10073000E091FF01F0910002808180688083E09168
:10074000FF01F091000280818F7D80830E94290249
:100750002B013C0198ECC92ED12CE12CF12C0E94EC
:1007600029026419750986099709683E7340810555
:100770009105A8F321E0C21AD108E108F10888EE3A
:10078000480E83E0581E611C711CC114D104E104A1
:10079000F10429F770E060E081ED91E00E947402BD
:1007A0000E945B02CE0101965C018AE0482E512C2A
:1007B000612C712C00E010E0F12C8DEE91E00E9494
:1007C0007A01181619066CF58DEE91E00E94580119
:1007D0002091B9013091BA018D3091F4F901E554BD
:1007E000FE4F1082FF24F394121613060CF0F12C26
:1007F0001092BA011092B901E0CFFF24F394DDCF3B
:1008000022333105D4F6F110F8CFA9014F5F5F4FC5
:100810005093BA014093B90125543E4FF9018083AA
:10082000CCCFFF2009F493C0F12CE12CB70189EC67
:1008300091E00E947402BC018BEB91E00E942505BF
:10084000892B91F0FFEFEF1AFF0A24E0E216F10482
:1008500069F764E070E081ED91E00E9474020E940B
:100860005B028BEB91E013C082E0E816F10491F09B
:1008700093E0E916F10489F065E070E0EA94EF286E
:1008800011F466E070E081ED91E00E9474020E9434
:1008900062021FC067E070E0F6CF61E070E081EDBA
:1008A00091E00E9474020E945B0262E070E081EDC0
:1008B00091E00E9474020E945B0285E191E00E9437
:1008C0005B0263E070E081ED91E00E9474020E949F
:1008D0005B0284E291E00E945B0280918A02909127
:1008E0008B02009711F48EE892E06501C81AD90ACC
:1008F0000D2C000CEE08FF08F7FE35C06DE28DEE02
:1009000091E00E94BC0122273327A9012C193D093F
:100910004E095F0919A2CE0181967C01CA01B90175
:10092000A30192010E94FD04605DF70162937F01C3
:10093000211531054105510589F7E114F10419F03C
:10094000C7010E944E0282E191E00E944E02011511
:10095000110509F431CF0E948601882309F42CCFB8
:100960000E94000029CFA701960119A2CE0181960D
:100970007C01CA01B901A30192010E94FD04605DDE
:10098000F70162937F01211531054105510589F772
:10099000D4CFEDEEF1E01382128288EE93E0A0E076
:1009A000B0E084839583A683B78384E091E091834C
:1009B000808385EC90E09587848784EC90E097872E
:1009C000868780EC90E0918B808B81EC90E0938B1C
:1009D000828B82EC90E0958B848B86EC90E0978BF9
:1009E000868B118E128E138E148E0895FB01DC01FE
:1009F00005900D920020E1F70895A1E21A2EAA1B9E
:100A0000BB1BFD010DC0AA1FBB1FEE1FFF1FA217BE
:100A1000B307E407F50720F0A21BB30BE40BF50BBB
:100A2000661F771F881F991F1A9469F76095709544
:100A3000809590959B01AC01BD01CF010895EE0F0B
:100A4000FF1F0590F491E02D0994FB01DC018D91CD
:100A5000019080190110D9F3990B0895F894FFCFF4
:100A600000000000BC011C01490109027A01580183
:100A70006C010D0A003C48313E54657374313C2FC3
:100A800048313E00467265652052616D203D200070
:107E0000112484B714BE81FFF0D085E080938100F7
:107E100082E08093C00088E18093C10086E0809377
:107E2000C20080E18093C4008EE0C9D0259A86E02C
:107E300020E33CEF91E0309385002093840096BBD3
:107E4000B09BFECF1D9AA8958150A9F7CC24DD24C4
:107E500088248394B5E0AB2EA1E19A2EF3E0BF2EE7
:107E6000A2D0813461F49FD0082FAFD0023811F036
:107E7000013811F484E001C083E08DD089C08234E0
:107E800011F484E103C0853419F485E0A6D080C0E4
:107E9000853579F488D0E82EFF2485D0082F10E0AE
:107EA000102F00270E291F29000F111F8ED06801E7
:107EB0006FC0863521F484E090D080E0DECF843638
:107EC00009F040C070D06FD0082F6DD080E0C81688
:107ED00080E7D80618F4F601B7BEE895C0E0D1E017
:107EE00062D089930C17E1F7F0E0CF16F0E7DF06D8
:107EF00018F0F601B7BEE89568D007B600FCFDCFD4
:107F0000A601A0E0B1E02C9130E011968C91119780
:107F100090E0982F8827822B932B1296FA010C0160
:107F200087BEE89511244E5F5F4FF1E0A038BF0790
:107F300051F7F601A7BEE89507B600FCFDCF97BE46
:107F4000E89526C08437B1F42ED02DD0F82E2BD052
:107F50003CD0F601EF2C8F010F5F1F4F84911BD097
:107F6000EA94F801C1F70894C11CD11CFA94CF0C13
:107F7000D11C0EC0853739F428D08EE10CD085E9AC
:107F80000AD08FE07ACF813511F488E018D01DD067
:107F900080E101D065CF982F8091C00085FFFCCF94
:107FA0009093C60008958091C00087FFFCCF809118
:107FB000C00084FD01C0A8958091C6000895E0E648
:107FC000F0E098E1908380830895EDDF803219F02E
:107FD00088E0F5DFFFCF84E1DECF1F93182FE3DFCA
:107FE0001150E9F7F2DF1F91089580E0E8DFEE27F6
:047FF000FF270994CA
:027FFE00040479
:00000001FF
