S0150000706572636F6261616E20342E322E73726563B0
S11300000C942A000C9434000C9434000C943400A6
S11300100C9434000C9434000C9434000C9434008C
S11300200C9434000C9434000C9434000C9434007C
S11300300C9434000C9434000C9434000C9434006C
S11300400C9434000C9434000C9434000C9434005C
S11300500C94340011241FBECFE5D4E0DEBFCDBF25
S11300600E9447000C945C000C94000010BC8CE0CF
S113007089B98AB188618AB980B5866880BD0895D6
S11300805D9BFECF8CB908958BB18CB108958FEF31
S113009087BB88BB0E9436005F9BFECF0E94440052
S11300A0C82F0E944000C13611F418BAF5CFC236E9
S10F00B099F78FEF88BBF0CFF894FFCFD6
S9030000FC
