S0110000747567617320342E362E7372656337
S11300000C942A000C9434000C9434000C943400A6
S11300100C9434000C9434000C9434000C9434008C
S11300200C9434000C9434000C9434000C9434007C
S11300300C9434000C9434000C9434000C9434006C
S11300400C9434000C9434000C9434000C9434005C
S11300500C94340011241FBECFE5D4E0DEBFCDBF25
S11300600E944C000C9466000C94000010BC8CE0C0
S113007089B98AB188618AB980B5866880BD0895D6
S113008087B1806487B986B1866C86B986B180648D
S113009086B93699FECF08951ABA1BBA8FEF87BB7B
S11300A088BB0E9440000E94360084B195B196B18D
S11300B0906496B93699FECF24B135B128BB98B374
S11300C0891799F384B195B18CB9EFCFF894FFCF28
S9030000FC
